:020000040800F2
:1000000060090020450100086D090008EF0800089C
:100010006909000849050008B91900080000000036
:10002000000000000000000000000000450F000874
:100030007306000800000000FB0C000849100008CF
:100040005F0100085F0100085F0100085F01000810
:100050005F0100085F0100085F0100085F01000800
:100060005F0100085F0100085F0100085F010008F0
:100070005F0100085F0100085F0100085F010008E0
:100080005F0100085F0100085F0100085F010008D0
:100090005F0100085F0100085F0100085F010008C0
:1000A0005F0100085F0100085F0100085F010008B0
:1000B0005F010008AD1000085F0100085F01000843
:1000C0005F0100085F0100085F0100085F01000890
:1000D0005F010008B51400085F0100085F01000817
:1000E0005F0100085F0100085F0100085F01000870
:1000F0005F0100085F0100085F0100085F01000860
:100100005F0100085F0100085F0100085F0100084F
:100110005F0100085F0100085F0100085F0100083F
:100120005F0100085F0100085F0100085F0100082F
:10013000DFF80CD000F0BCF900480047D91D0008DA
:10014000600900200648804706480047FEE7FEE7B2
:10015000FEE7FEE7FEE7FEE7FEE7FEE7FEE7FEE777
:100160004D100008310100082DE9FE4F81EA03041B
:1001700004F0004421F0004100944FF0000B23F004
:10018000004350EA01045ED052EA03045BD0C3F39B
:100190000A54C1F30A552C44A4F2F3340194A0FB91
:1001A0000254C1F3130141F48011C3F3130343F468
:1001B000801301FB024400FB034E840A970A44EAC1
:1001C000815447EA8357A4FB076802958D0A05FB13
:1001D00007854FEA932C04FB0C542705029D4FEA38
:1001E000065847EA1637B5EB08056EEB070C870E85
:1001F000920E47EA811742EA8312A7FB0201B6EB8F
:100200000B0164EB00042B0D43EA0C335E1844EB46
:100210001C50DA465146E7FB0201C5F313044FEACE
:100220000B3343EA14534FEA0432019C43EA0603BA
:10023000A4F10C040294009CCDE900B400F0EAF8AB
:1002400003B0BDE8F08F00200146F9E72DE9F04D3D
:1002500081EA030404F0004B21F0004514464FF0FE
:10026000000A23F0004150EA050220D054EA0102BE
:100270001DD0C5F30A570246C5F31303C1F313009B
:10028000C1F30A5640F4801543F48013A7EB060827
:10029000101BD64608F2FD3873EB050002D308F1B7
:1002A000010801E092185B41B8F1000F03DA002069
:1002B0000146BDE8F08D00204FF4801106468446CB
:1002C0000EE0171B73EB050705D3121B63EB050349
:1002D00006434CEA010C49084FEA300092185B4192
:1002E00050EA0107EDD152EA030012D082EA04007D
:1002F00083EA0501084305D0101BAB4106D2012259
:10030000002306E000224FF0004302E06FF00102FC
:1003100053101AEB06004CEB085110EB0A0041EBAE
:100320000B01BDE8F04D00F066B80EB5C10F80EAD4
:10033000E0700844CA07002140F233438DE80E0004
:100340000A460B4600F066F803B000BD0EB540F259
:10035000334102910021CDE900110A460B4600F01D
:1003600059F803B000BD70B5C1F30A5201F0004561
:100370000024C1F3130140F2FF3341F480119A428B
:1003800001DA002070BD40F233439A42A2F23342B8
:1003900003DC524200F01FF800E090402C43F1D003
:1003A000404270BDC1F30A5210B5C1F3130140F2CF
:1003B000FF3341F480119A4201DA002010BD40F26F
:1003C00033439A42A2F2334203DC524200F003F874
:1003D00010BD904010BD202A04DB203A21FA02F023
:1003E0000021704721FA02F3D040C2F1200291406F
:1003F00008431946704710B5141E73F1000408DA5B
:10040000401C41F1000192185B411A4301D120F0D8
:10041000010010BD2DE9F04D92469B4611B1B1FA95
:1004200081F202E0B0FA80F22032904600F052F8F9
:1004300004460F4640EA0A0041EA0B0153465A4679
:10044000084313D0114653EA010019D0C8F1400205
:100450005046FFF7C0FF05460E46504659464246F5
:1004600000F038F8084305D0012004E02046394662
:10047000BDE8F08D0020054346EAE0762C43374383
:100480000A986305E40AA0EB08000022FD0A44EA8A
:1004900047540A3002D500200146E9E7010510194A
:1004A0006941DDE9084500196941BDE8F04DA2E761
:1004B000064C074D06E0E06840F0010394E80700B1
:1004C00098471034AC42F6D3FFF736FE102D0008E3
:1004D000302D0008202A04DB203A00FA02F1002027
:1004E00070479140C2F1200320FA03F31943904072
:1004F000704770B58C1810F8015B15F0070301D137
:1005000010F8013B2A1106D110F8012B03E010F876
:10051000016B01F8016B5B1EF9D12B0705D4002399
:10052000521E0DD401F8013BFAE710F8013BCB1A3B
:10053000921C03E013F8015B01F8015B521EF9D530
:10054000A142D8D3002070BD00BFFEE710B51E2029
:1005500001F0C0FB10BD000010B54FF480412448ED
:1005600000F0C3F900F080F84FF48041204800F01B
:10057000BAF9142000F072F84FF480411C4800F0E2
:10058000B4F9002430E04FF48041194800F0A2F99A
:1005900040BB4FF4FA601749086000BF4FF4804138
:1005A000134800F097F938B9124801680068401EF6
:1005B000104A10600029F1D14FF4FA600D4908602B
:1005C00000BF4FF480410A4800F084F9012807D1A8
:1005D000084801680068401E064A10600029F0D1F2
:1005E000012010BD601CC4B2FA2CCCDB0020F8E75F
:1005F000000C0140580400202DE9F05F07468846B2
:10060000FFF7AAFF30B34FF48041134800F06DF9B3
:1006100001F08EFC054601F08BFC824601F088FC5F
:10062000064601F085FC814601F082FC83464FF4CA
:100630008041094800F059F92C4604EB0A00C4B285
:10064000A019C4B204EB0900C4B25C4502D13D60FC
:10065000C8F80060BDE8F09F000C014010B50446EA
:10066000A0B201F011FB10BD10B50A2001F032FB61
:1006700010BD704710B50446204601F02BFB10BD9D
:1006800008B501211D2000F059FB0121244800F08C
:10069000D9F84FF40040ADF8000010208DF80300A9
:1006A00003208DF8020069461E4800F03FF84FF421
:1006B0001840ADF8000048208DF8030003208DF8A5
:1006C00002006946184800F031F83820ADF8000003
:1006D00048208DF8030003208DF802006946114878
:1006E00000F024F84FF48040ADF8000014208DF89D
:1006F000030003208DF8020069460A4800F016F84E
:100700004FF44050ADF8000010208DF80300032096
:100710008DF802006946034800F008F808BD0000A3
:1007200000023000000C0140000801402DE9F041BA
:10073000024600250026002000230024002791F80F
:1007400003C00CF00F0591F803C00CF0100CBCF1C5
:10075000000F03D091F802C04CEA050591F800C0E3
:10076000BCF1000F31D0146800202BE04FF0010CD9
:100770000CFA00F3B1F800C00CEA03069E4220D147
:1007800083004FF00F0C0CFA03F7BC4305FA03FC8F
:100790004CEA040491F803C0BCF1280F06D14FF0D5
:1007A000010C0CFA00FCC2F814C00AE091F803C076
:1007B000BCF1480F05D14FF0010C0CFA00FCC2F857
:1007C00010C0401C0828D1D31460B1F800C0BCF19F
:1007D000FF0F34DD546800202EE000F1080C4FF0CC
:1007E000010808FA0CF3B1F800C00CEA03069E42B7
:1007F00021D183004FF00F0C0CFA03F7BC4305FA2C
:1008000003FC4CEA040491F803C0BCF1280F05D1A5
:1008100000F1080C08FA0CF8C2F8148091F803C033
:10082000BCF1480F07D100F1080C4FF0010808FA9D
:100830000CF8C2F81080401C0828CED35460BDE8E4
:10084000F0810000F0B50A460023002400210025B5
:1008500000F00046B6F1004F02D11D4EF16901E0F3
:100860001B4E7168C0F3034583B200F44016B6F521
:10087000401F08D121F07061154E766826F0706631
:10088000134F7E6012E000F48016B6F5801F06D18B
:10089000032606FA05F4A14341F0706106E0460D17
:1008A000360103FA06F6B14341F0706122B1460DFC
:1008B000360103FA06F6314300F00046B6F1004F68
:1008C00002D1034EF16101E0014E7160F0BD000004
:1008D000000001400246002093680B400BB101204C
:1008E00000E000207047416170470161704700BF20
:1008F000FEE7000010B54FF480510948FFF7F5FFFF
:100900004FF400510648FFF7F0FF4FF40051044840
:10091000FFF7E9FF4FF480510148FFF7E4FF10BDF6
:10092000000C014010B54FF480510748FFF7DDFF80
:100930004FF400510448FFF7D6FF4FF4005102482E
:10094000FFF7D3FF10BD0000000C014010B54FF4BD
:1009500080510448FFF7C9FF4FF480510148FFF769
:10096000C2FF10BD000C014000BFFEE7704708B594
:100970004FF4A06000F048F81D208DF80000022020
:100980008DF801008DF8020001208DF80300684603
:1009900000F002F808BD000070B5002100230F220E
:1009A000C47804B3154C246804F4E064C4F5E0642E
:1009B000210AC1F10403CA40447804FA03F184789F
:1009C0001440214309010E4C0678A155047804F027
:1009D0001F050124AC4005786D11AD0005F1E0253F
:1009E000C5F8004109E0047804F01F050124AC407B
:1009F000044D0678761145F8264070BD0CED00E0F8
:100A000000E400E080E100E002490143024A116095
:100A1000704700000000FA050CED00E070B50024FE
:100A200018E004F1B000002100F05BF90021084655
:100A300000F057F90021102000F053F9002505E0DF
:100A40000121002000F04DF9681CC5B2802DF7DBB4
:100A5000601CC4B2082CE4DB70BD000008B50121A5
:100A6000082000F06BF94FF44050ADF80000102062
:100A70008DF8030003208DF8020069463C48FFF71B
:100A800055FE4FF440513A48FFF72FFF4FF448709E
:100A900001F0FAF80021AE2000F023F90021084609
:100AA00000F01FF90021102000F01BF90021402068
:100AB00000F017F90021B02000F013F90021812087
:100AC00000F00FF90021FF2000F00BF90021A12018
:100AD00000F007F90021A62000F003F90021A8206A
:100AE00000F0FFF800213F2000F0FBF80021C820B3
:100AF00000F0F7F80021D32000F0F3F800210846B9
:100B000000F0EFF80021D52000F0EBF80021802064
:100B100000F0E7F80021D82000F0E3F800210520DC
:100B200000F0DFF80021D92000F0DBF80021F120EF
:100B300000F0D7F80021DA2000F0D3F800211220CD
:100B400000F0CFF80021DB2000F0CBF800213020AE
:100B500000F0C7F800218D2000F0C3F80021142018
:100B600000F0BFF80021AF2000F0BBF808BD000086
:100B7000000C014070B504460D4605F1B00000219F
:100B800000F0AFF8102141EA1410002100F0A9F89C
:100B900004F00F00002100F0A4F870BD2DE9F04131
:100BA00080460E461546002731464046FFF7E2FFD5
:100BB00000240AE0124A02EB8511085D012100F0D1
:100BC00090F8781CC7B2601CC4B2102CF2DB701C09
:100BD000C1B24046FFF7CEFF00240CE06900491C7B
:100BE000074A02EB4111085D012100F07AF8781CF8
:100BF000C7B2601CC4B2102CF0DBBDE8F08100006D
:100C0000940000202DE9F04707460E46904699468D
:100C100000250024A8F12000C5B27F2F02DD0027A7
:100C2000B01CC6B2B9F1100F24D131463846FFF7D7
:100C3000A1FF002408E004EB0511194A505C0121D2
:100C400000F04FF8601CC4B2082CF4DB701CC1B279
:100C50003846FFF78FFF002409E004EB0511083147
:100C60000F4A505C012100F03CF8601CC4B2082C13
:100C7000F3DB12E031463846FFF77CFF00240AE040
:100C800005EB4501074A02EB4101085D012100F037
:100C900028F8601CC4B2062CF2DBBDE8F087000027
:100CA00020270008F82400082DE9F04104460F46EB
:100CB0001546984600260FE0AA5D43463946204671
:100CC000FFF7A0FF04F10800C4B2782C02DD002475
:100CD000B81CC7B2701CC6B2A85D0028ECD1BDE834
:100CE000F08170B504460D461DB1E0B200F0AAFED9
:100CF00002E0E0B200F090FE70BD704729B1064AF4
:100D0000D2690243044BDA6104E0034AD2698243A8
:100D1000014BDA61704700000010024029B1064A19
:100D200012690243044B1A6104E0034A12698243C8
:100D3000014B1A61704700000010024029B1064AB9
:100D400092690243044B9A6104E0034A9269824328
:100D5000014B9A61704700000010024029B1064A19
:100D6000D2680243044BDA6004E0034AD26882434B
:100D7000014BDA60704700000010024030B50021DE
:100D80000022002400232D4D6D6805F00C0121B1D7
:100D9000042905D0082923D105E0294D056022E06A
:100DA000274D05601FE0254D6D6805F47012234D39
:100DB0006D6805F48034022505EB92421CB9214D83
:100DC000554305600BE01D4D6D6805F400351DB100
:100DD0001C4D5543056002E0194D5543056002E086
:100DE000174D056000BF00BF144D6D6805F0F001A0
:100DF0000909154D6B5C0568DD4045600F4D6D6858
:100E000005F4E061090A104D6B5C4568DD408560C2
:100E10000A4D6D6805F46051C90A0B4D6B5C45685D
:100E2000DD40C560054D6D6805F44041890B074DF7
:100E30006B5CC568B5FBF3F5056130BD0010024081
:100E400000127A0000093D006204002072040020B4
:100E500030B5002400253248006801285FD1002009
:100E60002F4908602F48046800202E4908602E484A
:100E700000782A2821D1E1B22C48012203682A48AF
:100E800000F04EFF29490860E1B2294802220368B8
:100E9000254800F045FF2649086008460068C0EB79
:100EA0000010800023490860E1B223480322036850
:100EB0001D4800F035FF204908601B4800782328B2
:100EC00024D1194840784B2803D101201B490860E0
:100ED00006E015484078472802D1002017490860ED
:100EE000114880784B280AD1012015490860104824
:100EF0000068C0EB001080000E49086006E00A4858
:100F00008078472802D100200D490860002504E0C0
:100F1000002005494855681CC5B2A542F8DB30BD24
:100F20004400002038000020780400202000002029
:100F30001400002018000020280000201C000020C1
:100F400008000020704700000BE010F8011B074A62
:100F5000118000BF0549091F098801F040010029DF
:100F6000F8D001780029F0D1704700000438014022
:100F700010B500F001F810BD0CB5002001900090F4
:100F80002548006840F480302349086000BF2248AB
:100F9000006800F4003000900198401C0190009817
:100FA00018B90198B0F5A06FF1D11B48006800F4A2
:100FB000003010B10120009001E000200090009866
:100FC000012828D11548006840F010001349086036
:100FD0000846006820F003000860084600680860C2
:100FE0000D4840680C49486008464068486008461B
:100FF000406848600846406820F0030048600846A2
:10100000406840F00100486000BF0348406800F0BD
:101010000C000428F9D10CBD001002400020024051
:10102000042808D14FF0E021096941F004014FF094
:10103000E022116107E04FF0E021096921F004018D
:101040004FF0E022116170477047000010B513485F
:10105000006840F0010011490860084640681049E6
:1010600008400E494860084600680E4908400B4990
:1010700008600846006820F4802008600846406840
:1010800020F4FE0048604FF41F008860FFF770FFF7
:101090004FF000600449086010BD000000100240DD
:1010A0000000FFF8FFFFF6FE08ED00E010B501219B
:1010B000234800F060F9002841D00121204800F0C9
:1010C00054F820480068E0B11F480068C8B11F48C4
:1010D0000078401C1D490870084600781C490968C2
:1010E000884203DA01201B49086002E00020194908
:1010F0000860164800780A2806DD002013490870A9
:1011000002E000201349086013480068401C12499F
:10111000086008460068B0F5617F10DD00200860B7
:101120000E48006828B10D480068401E0B49086051
:1011300005E00B48006810B100200349086010BDAD
:10114000000400400C00002008000020790000206E
:1011500024000020BC8121427C00002018000020D7
:1011600014000020CA4302827047CA4302827047BB
:1011700021B1028842F00102028004E002884FF6A9
:10118000FE731A400280704710B5044668488442D6
:1011900008D10121C014FFF7E1FD0021E014FFF7A1
:1011A000DDFDC4E0B4F1804F08D101210846FFF70E
:1011B000B5FD00210120FFF7B1FDB8E05D48844294
:1011C00008D101210220FFF7A9FD00210220FFF72D
:1011D000A5FDACE05848844208D101210420FFF766
:1011E0009DFD00210420FFF799FDA0E053488442B3
:1011F00008D101210820FFF791FD00210820FFF709
:101200008DFD94E04E48844208D101211020FFF763
:1012100085FD00211020FFF781FD88E049488442C8
:1012200008D101212020FFF779FD00212020FFF7C0
:1012300075FD7CE04448844208D101214014FFF749
:101240008DFD00216014FFF789FD70E03F48844266
:1012500009D10121C804FFF781FD00214FF40020CE
:10126000FFF77CFD63E03A48844209D1012108057B
:10127000FFF774FD00214FF48010FFF76FFD56E07B
:101280003448844209D101214805FFF767FD002158
:101290004FF40010FFF762FD49E02F48844208D167
:1012A00001214020FFF73AFD00214020FFF736FDE5
:1012B0003DE02A48844208D101218020FFF72EFD1D
:1012C00000218020FFF72AFD31E02548844208D123
:1012D00001218015FFF722FD0021A015FFF71EFD5B
:1012E00025E02048844209D101210804FFF736FD9A
:1012F00000214FF48030FFF731FD18E01A48844296
:1013000009D101214804FFF729FD00214FF40030E5
:10131000FFF724FD0BE01548844208D10121880421
:10132000FFF71CFD00214FF48020FFF717FD10BDD3
:10133000002C01400004004000080040000C004068
:10134000001000400014004000340140004C0140F7
:10135000005001400054014000180040001C0040B3
:10136000002000400040014000440140004801408E
:101370000146888C704730B50246002000230024C7
:10138000158A05EA0103958905EA010413B10CB138
:10139000012000E0002030BD1AB183890B43838116
:1013A00002E083898B43838170478184704700000A
:1013B000002202881D4B98420ED01D4B98420BD044
:1013C000B0F1804F08D01B4B984205D01A4B984281
:1013D00002D01A4B984204D14FF68F731A404B88B3
:1013E0001A43174B984207D0164B984204D04FF639
:1013F000FF431A40CB881A4302808B8883850B8871
:1014000003850A4B98420BD0094B984208D00E4BEB
:10141000984205D00D4B984202D00D4B984201D115
:101420000B7A03860123838270470000002C014061
:10143000003401400004004000080040000C00405F
:1014400000100040001400400040014000440140F2
:10145000004801403EB505460C462846FFF794FE7D
:101460004FF6FF7000EA4400ADF8040040F69F70AC
:10147000ADF800000020ADF80600ADF802006946A6
:101480002846FFF795FF01212846FFF76BFE012252
:1014900011462846FFF780FF3EBD70B504460D4655
:1014A00000212046FFF781FF29462046FFF760FE16
:1014B00070BD000010B540F22551344800F017F916
:1014C000E8B140F22551314800F0E9F82F4800F02A
:1014D000C9F9C1B22E4802680068401C2C4B186044
:1014E0002C48815418460068C82802DB00201946A1
:1014F0000860012028490860002028490860282148
:10150000224800F0F4F818B12821204800F0C7F86C
:1015100040F646011D4800F0DDF820B140F64601D6
:101520001A4800F0BCF80821184800F0D3F830B190
:10153000164800F097F90821144800F0A7F8042194
:10154000124800F0C7F818B10421104800F09EF8C6
:1015500002210E4800F0BEF818B102210B4800F03D
:1015600095F80121094800F0B5F818B101210748A4
:1015700000F08CF840F22661044800F0B8F820B181
:1015800040F22661014800F08AF810BD00380140A1
:101590003800002078040020400000203C0000209B
:1015A00000B587B001210520FFF7C8FB01218803A2
:1015B000FFF7C4FB4FF40070ADF8080003208DF86E
:1015C0000A0018208DF80B0002A92E48FFF7AEF88C
:1015D0004FF48060ADF8080003208DF80A00042065
:1015E0008DF80B0002A92748FFF7A0F84FF416501A
:1015F00003900020ADF81000ADF81200ADF8140013
:10160000ADF818000C20ADF8160003A91E4800F034
:10161000BDF801211C4800F051F840F225511A484C
:1016200000F03DF8012240F22551174800F089F8FA
:1016300001222821144800F084F801226021124878
:1016400000F07FF855201049091D088000BF0E48A2
:10165000008800F040000028F9D04FF4E060FFF768
:10166000D3F925208DF8040000208DF80500012015
:101670008DF806008DF8070001A8FFF78DF907B077
:1016800000BD0000000801400038014001F4007274
:10169000B2F5007F00D100BFCA430280704710B589
:1016A0000022002340F66A14A14200D100BF0A12B2
:1016B00001249440A3B2DC43048010BD21B182898F
:1016C00042F40052828104E082894DF6FF731A4091
:1016D0008281704702460020B1F5007F00D100BF33
:1016E00013880B400BB1012000E00020704770B55B
:1016F0000246002400230025002040F66A16B1426D
:1017000000D100BFC1F3421501F01F03012606FA04
:1017100003F3012D02D19689334006E0022D02D158
:10172000168A334001E0968A33400C12012606FAED
:1017300004F41688344013B10CB1012000E00020FD
:1017400070BDF0B50346002400260025002040F6B9
:101750006A17B94200D100BF1846C1F3421401F024
:101760001F06012707FA06F5012C01D10C3004E011
:10177000022C01D1103000E014301AB107682F4359
:10178000076002E00768AF430760F0BD2DE9F0474E
:1017900086B005460E460024A24600BFA14600279B
:1017A000B08900B100BF2F462C8A4CF6FF70044070
:1017B000F08804432C82AC894EF6F3100440B088C4
:1017C00031890843718908430443AC81AC8A4FF6E0
:1017D000FF400440B0890443AC8201A8FFF7CEFA71
:1017E0001F48874202D1DDF810A001E0DDF80CA00F
:1017F000A88900F4004040B10AEBCA0000EB0A10CF
:1018000031684900B0FBF1F807E00AEBCA0000EBD1
:101810000A1031688900B0FBF1F86420B8FBF0F0E1
:1018200004012009642101FB1089A88900F400400B
:1018300040B1322000EBC900B0FBF1F000F007002E
:10184000044308E0322000EB09106421B0FBF1F002
:1018500000F00F0004432C8106B0BDE8F0870000C3
:101860000038014001468888C0F308007047000036
:101870002DE9F0474FF08040FFF77AFD00EB800044
:1018800000EBC00A5046FEF750FD06460B4A0C4BD3
:10189000FEF76AFC044600220A4BFEF7D7FC80469E
:1018A000FEF780FD0849088008460088B0F57A7F79
:1018B00002DB4FF47A700880BDE8F0875C8FC2F5D8
:1018C000285C3F40000069405C04002008B501210D
:1018D0000820FFF733FA4FF48070ADF800001020B5
:1018E0008DF8030003208DF8020069460848FEF7D2
:1018F0001DFF4FF40070ADF8000004208DF80300C8
:1019000069460348FEF712FF00F036F808BD0000F4
:10191000000C014010B54FF480711648FEF7E5FF4A
:101920001420FEF7A7FE4FF480711248FEF7DBFF8C
:1019300000BF4FF400710F48FEF7CCFF0028F8D02D
:1019400001218807FFF714FC00BF4FF4007109481C
:10195000FEF7C0FF0028F8D100214FF08040FFF7CC
:1019600007FCFFF785FF00214FF08040FFF71DFDCA
:1019700010BD0000000C01400EB501210846FFF724
:10198000BDF94FF08040FFF7FFFB4FF6FF70ADF859
:10199000040040F26710ADF800000020ADF806002A
:1019A000ADF8020069464FF08040FFF701FD0121CC
:1019B0008807FFF7D7FB0EBD00BFFEE72DE9F0411A
:1019C00005462C464FF480511248FEF78CFF002646
:1019D0001CE0274607F08007802F04D1B9010D488D
:1019E000FEF783FF04E04FF400510A48FEF77BFF47
:1019F0006006040E4FF480510648FEF776FF4FF460
:101A000080510448FEF76FFF701CC6B2082EE0DB61
:101A1000BDE8F081000C014010B50446FEF76AFFF6
:101A20007820FFF7CBFFFEF791FF0020FFF7C6FFFE
:101A3000FEF78CFF2046FFF7C1FFFEF787FFFEF79A
:101A400071FF10BD10B50446FEF754FF7820FFF774
:101A5000B5FFFEF77BFF4020FFF7B0FFFEF776FFF4
:101A60002046FFF7ABFFFEF771FFFEF75BFF10BDEF
:101A700002E008C8121F08C1002AFAD17047704757
:101A8000002001E001C1121F002AFBD170470000B5
:101A9000F0B54F4E3668F0B24E4ED6F83061F1B226
:101AA0004B4E10363668F2B24B4ED6F80C61F3B29C
:101AB000494ED6F81061F4B2474ED6F81461F5B22B
:101AC00018B90126454F3E7016E0444E36789EB157
:101AD0000026424F3E70424E366856B90126404FAE
:101AE0003E60404E3668C6EB0616B6003E4F3E607E
:101AF00002E000263A4F3E60394E3668012E66D12C
:101B000011B93A4F3E7010E0384E36786EB100266B
:101B1000364F3E70364E3668761C354F3E603E4638
:101B20003668022E01DD01263E601AB90126314FCA
:101B30003E7017E02F4E3678A6B100262D4F3E702E
:101B4000284E3668761C274F3E603E4636680A2E81
:101B500001DD00263E60234E3668C6EB0616B60051
:101B6000214F3E601BB90126234F3E700FE0224EED
:101B7000367866B10026204F3E70204E36681EB97A
:101B800001261E4F3E6002E000261C4F3E601CB93D
:101B900001261B4F3E700AE0194E36783EB10026F2
:101BA000174F3E70174E3668761C164F3E601DB9B3
:101BB0000126154F3E700AE0134E36783EB10026DE
:101BC000114F3E700F4E3668761E0E4F3E60F0BDD0
:101BD0002C0121420000214200802142730000209C
:101BE00008000020140000201800002074000020CD
:101BF0002800002075000020760000201C00002036
:101C00007700002020000020780000200A480068AB
:101C1000012810D109480068401C0849086008469E
:101C20000068012807DB00200349086003490860B9
:101C30000120034908607047400000203C0000205C
:101C40004400002010B56FF00400FFF7E9F90A48DE
:101C500000680A49B0FBF1F00949087008460078AD
:101C600000EB4001C1EBC0104FF6FF7101EAC0006C
:101C70000449088010BD00008000002000127A0096
:101C80005E040020600400200146114A12884A4385
:101C90004FF0E0235A6100229A611A46126942F01D
:101CA00001021A6100BF4FF0E022106900F001024A
:101CB0001AB100F48032002AF5D04FF0E022126908
:101CC00022F001024FF0E0231A6100229A6170476E
:101CD000600400200146114A12784A434FF0E02385
:101CE0005A6100229A611A46126942F001021A6191
:101CF00000BF4FF0E022106900F001021AB100F4B9
:101D00008032002AF5D04FF0E022126922F0010261
:101D10004FF0E0231A6100229A6170475E040020B0
:101D20002DE9F04304468C461646984600220027CB
:101D30000021002500BF0EE0A05C2A2809D1781CF4
:101D4000C7B2B74201D1114603E0701C874200D1EF
:101D50001546501CC2B26245EEDB681A012803D159
:101D600000234046BDE8F083681A022805D1481CCC
:101D7000205CA0F130031846F4E7681A03280ED15E
:101D8000881C205C303801F1010914F80990A9F190
:101D9000300909EB890900EB49031846E2E7681AA4
:101DA000042817D1481C205C30384FF0640900FB30
:101DB00009F001F1020914F80990A9F1300909EBC1
:101DC000890900EB4909C81C205C303809EB000385
:101DD0001846C7E74046C5E71FB5FFF733FFFEF7D4
:101DE0004FFCFEF73BFEFEF719FEFFF7D9FBFFF7AE
:101DF0006DFD01210220FEF781FFFEF7B8FD0121F4
:101E00003D48FFF727FB01213B48FFF746FB71E008
:101E10003A480068012816D13948016839480268F3
:101E200039480068394B1B68CDE90030CDE9022103
:101E30003748036837480268374801683748006800
:101E400000F0F8F901E0FEF7E9FD34493248FEF709
:101E5000D3FBFFF75FFD32480088FEF777FA0646AE
:101E60000022304BFEF7F2F90446FEF77CFA2949CE
:101E70000860084600680F2803DA00202A49086035
:101E800002E0012028490860FFF702FE00F09EF8FA
:101E9000FFF7BCFEFEF7DCFF1A480068B8B91C4823
:101EA0000068012803D104202049086022E0184876
:101EB0000068022803D107201C4908601AE0144872
:101EC0000068032816D10B201849086012E0134857
:101ED00000680B490968884206DD02200C49086049
:101EE00007201249086005E0012009490860042024
:101EF0000E4908608CE70000000400400800002044
:101F0000200000201C0000201800002014000020E9
:101F10002800002010000020040000200000002005
:101F20005C040020000024400C000020240000205D
:101F300010B500202249087000243CE020480078B9
:101F40004006000E1E4908704FF4FA601D490860F3
:101F500000BF4FF480411C48FEF7BCFC38B919485B
:101F600001680068401E174A10600029F1D1FEF791
:101F7000EDFA4FF480411448FEF7ACFC012818D16B
:101F80000F48007840F001000D4908704FF4FA60E6
:101F90000C49086000BF4FF480410B48FEF79AFCE3
:101FA00038B1084801680068401E064A10600029E0
:101FB000F1D1601CC4B2082CC0DB0148007810BD10
:101FC0005404002058040020000C014000B5904843
:101FD00000684FF47A7190FBF1F201FB120064216A
:101FE00090FBF1F030308B4908708948006864211B
:101FF00090FBF1F201FB12000A2190FBF1F030306E
:1020000084494870824800680A2190FBF1F201FB84
:10201000120030307F4988707F4800684FF47A7131
:1020200090FBF1F201FB1200642190FBF1F03030E3
:102030007849C87078480068642190FBF1F201FB90
:1020400012000A2190FBF1F0303072490871724899
:1020500000680A2190FBF1F201FB120030306D495B
:1020600048716E4800684FF47A7190FBF1F201FB01
:102070001200642190FBF1F03030664988716748A6
:102080000068642190FBF1F201FB12000A2190FB31
:10209000F1F030305F49C871604800680A2190FB58
:1020A000F1F201FB120030305A4908725C480068B6
:1020B0004FF47A7190FBF1F201FB1200642190FB66
:1020C000F1F030305349487255480068642190FB64
:1020D000F1F201FB12000A2190FBF1F030304D4982
:1020E00088724F4800680A2190FBF1F201FB120050
:1020F00030304849C8724B4800684FF47A7190FB01
:10210000F1F201FB1200642190FBF1F03030414903
:10211000087344480068642190FBF1F201FB12004F
:102120000A2190FBF1F030303A4948733D4800688D
:102130000A2190FBF1F201FB12003030354988731F
:10214000394800680A2190FBF1F201FB120030309F
:102150003049C873344800680A2190FBF1F201FB52
:10216000120030302B4908742F4800680A2190FB78
:10217000F1F201FB12003030264948742B48006808
:102180004FF47A7190FBF1F201FB1200642190FB95
:10219000F1F030301F49887424480068642190FBB6
:1021A000F1F201FB12000A2190FBF1F030301949E5
:1021B000C8741E4800680A2190FBF1F201FB12006E
:1021C0003030144908751A4800680A2190FBF1F272
:1021D00001FB120030300F494875154800680A218C
:1021E00090FBF1F201FB120030300A49887510486B
:1021F00000680A2190FBF1F201FB12003030054922
:10220000C875242008760846FEF79EFE00BD000033
:1022100000000020480000200400002010000020E2
:1022200028000020140000201C00002020000020B6
:10223000080000202DE9F84F04460D461646994641
:10224000DDE90CB8DDE90AA7002000900022104665
:102250000099FEF7A3FC012210200099FEF79EFCD6
:102260004FF47A70B4FBF0F100FB11406421B0FB35
:10227000F1F030309E4908706420B4FBF0F100FBAF
:1022800011400A21B0FBF1F03030994948700A2022
:10229000B4FBF0F100FB11403030954988701023F9
:1022A0000A4620200099FEF7FFFC022240200099F8
:1022B000FEF774FC032250200099FEF76FFC4FF4E8
:1022C0007A70B5FBF0F100FB11506421B0FBF1F026
:1022D0003030874908706420B5FBF0F100FB1150E5
:1022E0000A21B0FBF1F03030814948700A20B5FB7B
:1022F000F0F100FB115030307D49887010230A4600
:1023000060200099FEF7D0FC0220009004220020FB
:102310000099FEF743FC052210200099FEF73EFCD1
:102320004FF47A70B6FBF0F100FB11606421B0FB52
:10233000F1F030306E4908706420B6FBF0F100FB1C
:1023400011600A21B0FBF1F03030694948700A2071
:10235000B6FBF0F100FB1160303065498870102346
:102360000A4620200099FEF79FFC06224020009993
:10237000FEF714FC072250200099FEF70FFC2020E6
:102380005B4908700A20B9FBF0F100FB1190303076
:10239000574948702020887010230A466020009911
:1023A000FEF782FC042000900D2200200099FEF729
:1023B000F5FB0E2210200099FEF7F0FB6420BAFB1B
:1023C000F0F100FB11A00A21B0FBF1F030304949D7
:1023D00008700A20BAFBF0F100FB11A0303045492B
:1023E00048700020887010230A4620200099FEF7CC
:1023F0005BFC3C20B7FBF0F06421B0FBF1F201FB89
:1024000012000A21B0FBF1F030303A4908703C204C
:10241000B7FBF0F00A21B0FBF1F201FB1200303003
:10242000344948703A2088703C20B7FBF0F100FB3B
:1024300011706421B0FBF1F201FB12000A21B0FB24
:10244000F1F030302B49C8703C20B7FBF0F100FBB5
:1024500011700A21B0FBF1F201FB12003030254966
:10246000087110230A4640200099FEF71DFC062043
:102470000090082218200099FEF790FB09222820DE
:102480000099FEF78BFBBBF1000F05D10B223A2020
:102490000099FEF783FB04E00A223A200099FEF738
:1024A0007DFB4FF47A70B8FBF0F100FB11806421E2
:1024B000B0FBF1F030300E4908706420B8FBF0F149
:1024C00000FB11800A21B0FBF1F030300849487060
:1024D0000A20B8FBF0F100FB11803030044988700D
:1024E00010230A4650200099FEF7DEFBBDE8F88F66
:1024F0002C0000203100002000000000000000003F
:10250000002F000000000700070000147F147F1454
:1025100000242A7F2A1200626408132300364955DA
:10252000225000000503000000001C2241000000B2
:1025300041221C000014083E08140008083E080848
:10254000000000A0600000080808080800006060A3
:102550000000002010080402003E5149453E0000E2
:10256000427F4000004261514946002141454B31C4
:10257000001814127F10002745454539003C4A4990
:102580004930000171090503003649494936000602
:102590004949291E0000363600000000563600006A
:1025A00000081422410000141414141400004122E5
:1025B000140800020151090600324959513E007CBD
:1025C0001211127C007F49494936003E41414122A7
:1025D000007F4141221C007F49494941007F090990
:1025E0000901003E4149497A007F0808087F000040
:1025F000417F4100002040413F01007F08142241FB
:10260000007F40404040007F020C027F007F0408B2
:10261000107F003E4141413E007F09090906003E0E
:102620004151215E007F0919294600464949493137
:102630000001017F0101003F4040403F001F20405A
:10264000201F003F4038403F006314081463000718
:102650000870080700615149454300007F4141006F
:1026600000552A552A55000041417F00000402010F
:1026700002040040404040400000010204000020ED
:1026800054545478007F484444380038444444202B
:1026900000384444487F00385454541800087E09D8
:1026A00001020018A4A4A47C007F080404780000A0
:1026B000447D4000004080847D00007F102844005D
:1026C0000000417F4000007C04180478007C08046E
:1026D000047800384444443800FC242424180018AA
:1026E000242418FC007C0804040800485454542096
:1026F00000043F444020003C4040207C001C20401F
:10270000201C003C4030403C004428102844001C61
:10271000A0A0A07C004464544C4414141414141459
:1027200000000000000000000000000000000000A9
:10273000000000F80000000000000033300000003E
:1027400000100C06100C0600000000000000000045
:1027500040C07840C0784000043F04043F040400B7
:10276000007088FC08300000001820FF211E0000C7
:10277000F008F000E018000000211C031E211E00DC
:1027800000F00888700000001E2123241927211062
:1027900010160E0000000000000000000000000005
:1027A000000000E0180402000000000718204000AC
:1027B00000020418E000000000402018070000009C
:1027C000404080F0804040000202010F0102020000
:1027D000000000F0000000000101011F01010100E4
:1027E000000000000000000080B070000000000049
:1027F00000000000000000000001010101010101D2
:102800000000000000000000003030000000000068
:10281000000000008060180400601806010000003D
:1028200000E010080810E000000F102020100F003A
:10283000001010F8000000000020203F20200000C1
:102840000070080808887000003028242221300019
:1028500000300888884830000018202020110E0021
:102860000000C02010F8000000070424243F2400CA
:1028700000F80888880808000019212020110E009F
:1028800000E0108888180000000F112020110E00B1
:1028900000380808C83808000000003F00000000A9
:1028A0000070880808887000001C222121221C006A
:1028B00000E010080810E0000000312222110F0093
:1028C000000000C0C0000000000000303000000028
:1028D0000000008000000000000080600000000098
:1028E00000008040201008000001020408102000B1
:1028F00040404040404040000404040404040400FC
:102900000008102040800000002010080402010090
:10291000007048080808F000000000303601000090
:10292000C030C828E810E0000718272423140B0043
:102930000000C038E0000000203C230202273820BD
:1029400008F8888888700000203F202020110E00A1
:10295000C030080808083800071820202010080098
:1029600008F808080810E000203F202020100F0081
:1029700008F88888E8081000203F2020232018004D
:1029800008F88888E8081000203F200003000000B5
:10299000C03008080838000007182020221E020056
:1029A00008F808000008F808203F210101213F2015
:1029B000000808F8080800000020203F2020000040
:1029C00000000808F8080800C08080807F00000030
:1029D00008F888C028180800203F20012638200069
:1029E00008F8080000000000203F202020203000D0
:1029F00008F8F800F8F80800203F003F003F2000EA
:102A000008F830C00008F808203F200007183F00F1
:102A1000E01008080810E0000F10202020100F0020
:102A200008F808080808F000203F21010101000013
:102A3000E01008080810E0000F18242438504F0058
:102A400008F8888888887000203F2000030C302018
:102A500000708808080838000038202121221C0056
:102A6000180808F8080818000000203F200000009F
:102A700008F808000008F808001F202020201F0088
:102A80000878880000C83808000007380E010000E8
:102A9000F80800F80008F800033C0700073C0300B2
:102AA000081868808068180820302C03032C302018
:102AB0000838C800C83808000000203F2000000087
:102AC00010080808C83808002038262120201800DF
:102AD000000000FE020202000000007F40404000B3
:102AE000000C30C000000000000000010638C000EB
:102AF00000020202FE000000004040407F00000093
:102B000000000402020204000000000000000000B7
:102B100000000000000000008080808080808080B5
:102B2000000202040000000000000000000000009D
:102B300000008080808000000019242222223F2093
:102B400008F8008080000000003F112020110E00D6
:102B50000000008080800000000E11202020110065
:102B6000000000808088F800000E112020103F2017
:102B70000000808080800000001F2222222213009B
:102B8000008080F0888888180020203F20200000E6
:102B90000000808080808000006B9494949360009B
:102BA00008F8008080800000203F210000203F20A6
:102BB00000809898000000000020203F20200000A6
:102BC000000000809898000000C08080807F000096
:102BD00008F8000080808000203F24022D30200073
:102BE000000808F8000000000020203F202000001E
:102BF0008080808080808000203F20003F20003F38
:102C00008080008080800000203F210000203F2045
:102C10000000808080800000001F202020201F00F6
:102C2000808000808000000080FFA12020110E0025
:102C30000000008080808000000E112020A0FF8016
:102C4000808080008080800020203F2120000100C3
:102C50000000808080808000003324242424190018
:102C6000008080E0808000000000001F2020000025
:102C70008080000000808000001F202020103F2066
:102C8000808080000080808000010E3008060100F6
:102C900080800080008080800F300C030C300F009B
:102CA00000808000808080000020312E0E312000C6
:102CB000808080000080808080818E7018060100F6
:102CC00000808080808080000021302C2221300014
:102CD00000000000807C020200000000003F404035
:102CE00000000000FF00000000000000FF000000E6
:102CF0000002027C800000000040403F0000000015
:102D000000060101020204040000000000000000AF
:102D1000302D00080000002078040000F2040008B4
:102D2000EC2E000878040020E8040000801A000857
:102D30000118723C3219320532011530323020064A
:102D40001230303A30301B31301E00092C30333015
:102D5000303430302493127A200D01020304060728
:102D600008091060028C2BFE92010213FE180A045F
:102D7000047E01407E42427E020413427E402809C6
:102D8000FC242424FC2526240802110400101140F0
:102D9000308F80844C55252525554C808080398086
:102DA000497F091780080B504448507F40407F50AE
:102DB00048448011163E22E2223E2BFE22010311DE
:102DC000E20217203F201F11112B7F44010A1047F8
:102DD00080180D040404F484D4A5A6A4D484F40CAF
:102DE0000112000E12FE0202123A1613121A324299
:102DF000827E000F121010D0FF901040425C407F86
:102E00004050CE13040312FF3B01407F031344FFE5
:102E1000180A8060F80710901011164A021210224A
:102E200001080C10FF4040415E4040704E4140C0E0
:102E30001D1060028CA52A92010213FE180A0404D8
:102E40007E01407E42427E020B11427E40000F1105
:102E50001010FF9020984828090E2848A81815023D
:102E600042817F2C404042420B104242401E8082F1
:102E70008282FE0449060A1180E05440300F091294
:102E8000FD398229FB0713F01010141310001033C2
:102E90008181414121110D030D11214141818103A6
:102EA0001C36361C100C44012B45C6060C1144146C
:102EB0000CBF3F201E2040407F200312404016FCE4
:102EC000848484FC2A10010B11FF10C21A3F1922BE
:102ED0003F0617010640807FC3D0072D010203047F
:0C2EE00004200906070809020406080087
:0400000508000145A9
:00000001FF
